:020000040800F2
:10000000E00C002049010008ED150008EF1500087C
:10001000F3150008F7150008FB15000800000000A4
:10002000000000000000000000000000FF150008B4
:10003000011600080000000003160008051600085D
:100040006301000863010008630100086301000800
:1000500063010008630100086301000863010008F0
:1000600063010008630100086301000863010008E0
:1000700063010008630100086301000863010008D0
:1000800063010008630100086301000863010008C0
:1000900063010008630100086301000863010008B0
:1000A00063010008630100086301000863010008A0
:1000B0006301000863010008630100086301000890
:1000C0006301000863010008630100086301000880
:1000D000630100085B16000863010008CD160008E4
:1000E0006301000863010008630100086301000860
:1000F0006301000863010008630100086301000850
:10010000630100086301000863010008630100083F
:10011000630100086301000863010008630100082F
:10012000630100086301000863010008630100081F
:10013000DFF810D003F09EFC004800473D15000892
:10014000AFF30080E00C00200648804706480047D7
:10015000FEE7FEE7FEE7FEE7FEE7FEE7FEE7FEE777
:10016000FEE7FEE74B020008310100080CB5002055
:10017000019000906C48006840F480306A49086043
:1001800000BF6948006800F4003000900198401CEE
:100190000190009818B90198B0F5A06FF1D16248AC
:1001A000006800F4003010B10120009001E0002050
:1001B00000900098012843D15C48006840F010008E
:1001C0005A4908600846006820F0030008600846A5
:1001D000006840F002000860534840685249486097
:1001E0000846406848600846406840F480604860BF
:1001F0000846406820F47C1048600846406840F497
:10020000E81048600846006840F08070086000BF51
:100210004548006800F000700028F9D04248406866
:1002200020F00300404948600846406840F0020062
:10023000486000BF3C48406800F00C000828F9D135
:100240000CBD10B5FFF792FF10BD10B53648006821
:1002500040F00100344908600846406834490840CD
:100260003149486008460068324908402E49086014
:100270000846006820F4802008600846406820F4A2
:10028000FE0048604FF41F008860FFF7DAFF4FF070
:1002900000602949086010BD10B50021002000222F
:1002A000214B5B6803F00C0121B1042906D0082919
:1002B00028D107E0214B224C236027E01F4B204C24
:1002C000236023E0184B5B6803F47010164B5B68E7
:1002D00003F48032022303EB904022B9194B4343CD
:1002E000174C23600DE0104B5B6803F4003323B11F
:1002F000144B4343124C236003E0104B4343104C18
:10030000236003E00D4B0E4C236000BF00BF064B83
:100310005B68C3F303130C4CE15C094B1B68CB40D7
:10032000074C236010BD0000001002400020024076
:100330000000FFF8FFFFF6FE08ED00E000127A0073
:100340000000002000093D00040000203149014365
:10035000314A1160704770B5002100230F22C47824
:1003600004B32D4C246804F4E064C4F5E064210A6D
:10037000C1F10403CA40447804FA03F184781440BC
:1003800021430901254C0678A155047804F01F0586
:100390000124AC4005786D11AD0005F1E025C5F8EC
:1003A000004109E0047804F01F050124AC401C4D15
:1003B0000678761145F8264070BD1A4A0A40024375
:1003C000154B1B1F1A60704739B1134A121D126872
:1003D0000243114B1B1D1A6006E00F4A121D1268E2
:1003E00082430D4B1B1D1A607047042808D14FF043
:1003F000E021096941F004014FF0E022116107E0BA
:100400004FF0E021096921F004014FF0E022116171
:10041000704700000000FA050CED00E000E400E089
:1004200080E100E080FFFF1F30B943F2DB02810072
:10043000A1F1C0410A6005E043F2D2028100A1F1BE
:10044000C0410A606FF07042411C8900A1F1C041B7
:100450000A608100A1F1C041C1F804217047102851
:100460000AD118214FF020421166402151664FF009
:10047000FC319166D16610E01821F74A11604021E5
:100480004FF02042C2F884104FF0FC31F24A08329B
:1004900011604FF02042C2F88C1070471820EE49CE
:1004A0002031086000200906C1F8A4004FF0FC309C
:1004B000E94928310860091D0860091D0860704776
:1004C000D0E901121143C268114302691143426924
:1004D000114382691143C2691143026A1143426A9E
:1004E0001143826A1143C26A1143026B11430268CD
:1004F0009200A2F1C0421160816808290BD1016805
:100500008900A1F1C041096841F0400201688900F9
:10051000A1F1C0410A60416B0968426B526841EA2F
:100520000211426B926841EA0221426B928941EAD0
:100530000241426B128A41EA0251426B127D41EA4A
:100540000261426B926911430268521C9200A2F14F
:10055000C0421160C16AB1F5804F1BD1816B09683F
:10056000826B526841EA0211826B926841EA022171
:10057000826B128A41EA0251826B127D41EA02616A
:10058000826B9269114302689200A2F1C042C2F8E4
:10059000041107E06FF0704201688900A1F1C041C9
:1005A000C1F80421704730B50021002200234468BF
:1005B00044F0080485682C43C5682C4305692C4326
:1005C000456944EA4524856944EA4531C46924689B
:1005D000C5696D6844EA0524C5692D8944EA054466
:1005E000C5692D7B44EA0562046A2468056A6D6862
:1005F00044EA0524056A2D8944EA0544056A2D7BF1
:1006000044EA05630468102C05D14FF020442166AC
:10061000A266E36608E0904C21604FF02044C4F8E5
:1006200088208D4C0C34236030BD016841F01001EE
:10063000426841EA4221826841EA4231864A2032D8
:100640001160C1680968C268526841EA0221C26843
:10065000128941EA0241C268127B41EA02617E4A84
:1006600028321160016909680269526841EA022171
:100670000269128941EA02410269127B41EA026180
:10068000754A2C321160416909684269526841EA31
:1006900002214269128941EA02414269127B41EA20
:1006A00002614FF02042C2F8B01070470021016093
:1006B0000221416000218160C1600161416181616D
:1006C000C16101624FF480514162490081620021A1
:1006D000C16201630F21426B1160426B5160FF21C7
:1006E000426B91600F21426BD160426B1161426B92
:1006F00051610021426B91610F21826B1160826B0D
:100700005160FF21826B91600F21826BD160826BFF
:100710001161826B51610021826B916170471021E0
:100720000160002141608160C160016141618161BE
:10073000FC21C2691160C2695160C2699160C269DD
:10074000D160026A1160026A5160026A9160026AB5
:10075000D16070470021016041608160FC21C26866
:100760001160C2685160C2689160C268D16002695C
:10077000116002695160026991600269D160426949
:10078000116042695160426991604269D16070476D
:1007900051B18200A2F1C042126842F0010382000E
:1007A000A2F1C042136009E08200A2F1C0421268C7
:1007B0002A4B1A408300A3F1C0431A60704799B1D5
:1007C000102808D14FF02042126E42F004024FF080
:1007D00020431A661DE0204A126842F004024FF0DE
:1007E0002043C3F8802014E0102809D14FF02042A4
:1007F000126E1A4BDB1E1A404FF020431A6608E0B7
:10080000154A1268154BDB1E1A404FF02043C3F8FF
:100810008020704748B110492031096841F0040137
:100820004FF02042C2F8A01009E00B4920310968BE
:100830000A4AD21E11404FF02042C2F8A010704761
:10084000B9B110280CD14FF02042126E42F0400294
:100850004FF020431A661FE0800000A0FEFF0F004B
:10086000724A126842F040024FF02043C3F88020E1
:1008700012E0102808D14FF02042126E6C4B1A4043
:100880004FF020431A6607E0684A1268684B1A4026
:100890004FF02043C3F88020704701460020102904
:1008A00003D14FF02042506F02E0604A14321068CA
:1008B000704710B5F2B1102807D14FF020435B6E9E
:1008C0000B434FF02044636632E0B0F5807F08D1DF
:1008D000564B1B1D1B680B434FF02044C4F884305B
:1008E00026E0524B24331B680B434FF02044C4F8DE
:1008F000A4301DE0102807D14FF020435B6E8B43DE
:100900004FF02044636613E0B0F5807F08D1474B79
:100910001B1D1B688B434FF02044C4F8843007E054
:10092000424B24331B688B434FF02044C4F8A4305F
:1009300010BD10B5024600200023102A03D14FF04D
:100940002044636E09E0B2F5807F03D1374C241D4B
:10095000236802E0354C2434236803EA01040CB117
:10096000012000E0002010BD102807D14FF02042E8
:10097000526E8A434FF020435A6613E0B0F5807FF1
:1009800008D12A4A121D12688A434FF02043C3F847
:10099000842007E0254A243212688A434FF020431E
:1009A000C3F8A420704770B502460020002300243D
:1009B0000025102A03D14FF02046736E09E0B2F5EE
:1009C000807F03D1194E361D336802E0174E24365E
:1009D000336803EA010403EAD10514B10DB1012023
:1009E00000E0002070BD102808D14FF02042526E68
:1009F00022EAD1024FF020435A6615E0B0F5807F1D
:100A000009D10A4A121D126822EAD1024FF020438E
:100A1000C3F8842008E0054A2432126822EAD10291
:100A20004FF02043C3F8A42070470000800000A0CE
:100A3000BFFF0F0010B50446CC48844208D1012105
:100A4000042000F02DFB0021042000F029FB46E0EB
:100A5000C748844208D10121082000F021FB002171
:100A6000082000F01DFB3AE0C248844208D1012171
:100A7000102000F015FB0021102000F011FB2EE0EB
:100A8000BD48844208D10121202000F009FB00214B
:100A9000202000F005FB22E0B848844208D1012163
:100AA000402000F0FDFA0021402000F0F9FA16E0A5
:100AB000B348844208D10121802000F0F1FA0021DE
:100AC000802000F0EDFA0AE0AE48844207D101210F
:100AD000801500F0E5FA0021A01500F0E1FA10BD44
:100AE00010B50121084600F0DBFA0021012000F0DA
:100AF000D7FA10BD2DE9F04102460025002600205E
:100B000000230024002791F803C00CF00F0591F892
:100B100003C00CF0100CBCF1000F03D091F802C020
:100B20004CEA050591F800C0BCF1000F31D0146803
:100B300000202BE04FF0010C0CFA00F3B1F800C0DC
:100B40000CEA03069E4220D183004FF00F0C0CFAF2
:100B500003F7BC4305FA03FC4CEA040491F803C014
:100B6000BCF1280F06D14FF0010C0CFA00FCC2F8C2
:100B700014C00AE091F803C0BCF1480F05D14FF052
:100B8000010C0CFA00FCC2F810C0401C0828D1D39C
:100B90001460B1F800C0BCF1FF0F34DD54680020D0
:100BA0002EE000F1080C4FF0010808FA0CF3B1F840
:100BB00000C00CEA03069E4221D183004FF00F0CC7
:100BC0000CFA03F7BC4305FA03FC4CEA040491F861
:100BD00003C0BCF1280F05D100F1080C08FA0CF88D
:100BE000C2F8148091F803C0BCF1480F07D100F19E
:100BF000080C4FF0010808FA0CF8C2F81080401CED
:100C00000828CED35460BDE8F0814FF6FF71018013
:100C1000022181700421C170704702460020936850
:100C20000B400BB1012000E00020704701468868AE
:100C300080B2704702460020D3680B400BB1012000
:100C400000E0002070470146C86880B2704701612B
:100C50007047416170470AB1016100E0416170472E
:100C6000C16070474FF480320A43826181618261C2
:100C700082698269704702460020434B18684FF62C
:100C80008073184040EA021008433F4B18607047D9
:100C90003E49C8617047F0B50A4600230024002190
:100CA000002500F00046B6F1004F02D1364EF16942
:100CB00001E0354E7168C0F3034583B200F440167D
:100CC000B6F5401F08D121F070612F4E766826F0EE
:100CD00070662D4F7E6012E000F48016B6F5801F1E
:100CE00006D1032606FA05F4A14341F0706106E03F
:100CF000460D360103FA06F6B14341F0706122B1A8
:100D0000460D360103FA06F6314300F00046B6F10F
:100D1000004F02D11C4EF16101E01B4E7160F0BD2D
:100D200030B500228B071C0F0F2303FA04F2164B79
:100D300008338C1053F824309343134C08348D102F
:100D400044F8253023468C1053F824308C07240FA8
:100D500000FA04F423430C4C08348D1044F8253079
:100D600030BD0A49DC3108607047000000080140CE
:100D7000000C014000100140001401400018014027
:100D8000001C014000200140000001400000204202
:100D9000DF48006840F00100DD490860084640680F
:100DA000DC490840DA49486008460068DA490840EA
:100DB000D74908600846006820F48020086008468B
:100DC000406820F4FE0048604FF41F0088607047C0
:100DD000CF49096821F48031CD4A11601146096874
:100DE00021F480211160B0F5803F03D0B0F5802F51
:100DF0000ED106E0C649096841F48031C44A116049
:100E000007E0C349096841F4A021C14A116000E02C
:100E100000BF00BF704710B501460022002300202C
:100E20004A11012A02D1BA4C236806E0022A02D1F3
:100E3000B74C236A01E0B64C636A01F01F0201243B
:100E400094401C400CB1012000E0002010BD38B5DA
:100E5000002000900024002500BF3120FFF7DBFFB9
:100E600005460098401C00900098B0F5A06F01D096
:100E7000002DF2D03120FFF7CEFF08B1012400E0B1
:100E80000024204638BD01460020A14A106820F009
:100E9000F80040EAC10010607047A0490860704740
:100EA000024600209A4B586820F47C1042EA010365
:100EB0001843974B58607047984908667047014639
:100EC0000020934A506820F00300084350607047A8
:100ED0008F48406800F00C007047014600208C4AA3
:100EE000506820F0F0000843506070470146002031
:100EF000874A506820F4E06008435060704701461C
:100F00000020834A506820F4605040EAC1005060DD
:100F1000704729B17E4A527A02437D4B5A7204E0EF
:100F20007B4A527A82437A4B5A7270477B49D83156
:100F30000860704701460020754A506820F4404020
:100F40000843506070470021714A20321170704A86
:100F500082F82010012802D004280AD104E00121DF
:100F60006B4A2032117005E00521694A2032117068
:100F700000E000BF00BF70476949086070476449DE
:100F8000096A0143624A1162704765494439086041
:100F9000704730B500210022002400235C4D6D68AD
:100FA00005F00C0121B1042905D0082923D105E061
:100FB0005C4D056022E05B4D05601FE0544D6D689F
:100FC00005F47012524D6D6805F48034022505EB6E
:100FD00092421CB9544D554305600BE04C4D6D6871
:100FE00005F400351DB1504D5543056002E04D4DEF
:100FF0005543056002E04B4D056000BF00BF444D06
:101000006D6805F0F0010909484D6B5C0568DD402D
:1010100045603F4D6D6805F4E061090A434D6B5C26
:101020004568DD4085603A4D6D6805F46051C90A38
:101030003E4D6B5C4568DD40C560354D6D6805F41F
:101040004041890B3A4D6B5CC568B5FBF3F5056112
:1010500030BD29B12E4A526902432D4B5A6104E03A
:101060002B4A526982432A4B5A61704729B1284A58
:1010700092690243264B9A6104E0254A92698243B1
:10108000234B9A61704729B1214AD2690243204B10
:10109000DA6104E01E4AD26982431D4BDA6170476F
:1010A00029B11B4AD2680243194BDA6004E0184A9E
:1010B000D2688243164BDA60704729B1144A12692C
:1010C0000243134B1A6104E0114A12698243104B28
:1010D0001A61704712494039086070470F49C86467
:1010E00070470B49C87170470948406A40F08070EA
:1010F00007494862704701460020054A92680A4045
:101100000AB1012000E00020704701498872704751
:10111000001002400000FFF8FFFFF6FE0000424210
:101120008004424200127A0000093D0014000020B1
:101130002400002010B50446FB48844209D1012157
:101140008803FFF7ADFF00214FF48040FFF7A8FFB1
:1011500032E0F648844209D101214804FFF7ADFF8F
:1011600000214FF40030FFF7A8FF25E0F04884424B
:1011700009D101218804FFF7A0FF00214FF480204E
:10118000FFF79BFF18E0EB48844209D10121C80416
:10119000FFF793FF00214FF40020FFF78EFF0BE0D5
:1011A000E548844208D101210805FFF786FF0021A8
:1011B0004FF48010FFF781FF10BD2DE9F04786B096
:1011C00005460E460024A24600BFA1460027B0896E
:1011D00000B100BF2F462C8A4CF6FF700440F08807
:1011E00004432C82AC894EF6F3100440B088318958
:1011F0000843718908430443AC81AC8A4FF6FF4031
:101200000440B0890443AC8201A8FFF7C2FEC6487F
:10121000874202D1DDF810A001E0DDF80CA0A8891A
:1012200000F4004040B10AEBCA0000EB0A1031683C
:101230004900B0FBF1F807E00AEBCA0000EB0A1026
:1012400031688900B0FBF1F86420B8FBF0F00401CC
:101250002009642101FB1089A88900F4004040B1F5
:10126000322000EBC900B0FBF1F000F007000443AE
:1012700008E0322000EB09106421B0FBF1F000F02F
:101280000F0004432C8106B0BDE8F0874FF41651DF
:10129000016000218180C18001810C2141810021F8
:1012A0008181704710B502460020108A4FF2FF037B
:1012B00018400B884C8823438C882343CC882343D5
:1012C0001843108210BD0021018041808180C180BF
:1012D000704721B1828942F40052828104E0828900
:1012E0004DF6FF731A4082817047F0B50346002423
:1012F00000260025002040F66A17B94200D100BF41
:101300001846C1F3421401F01F06012707FA06F53B
:10131000012C01D10C3004E0022C01D1103000E08E
:1013200014301AB107682F43076002E00768AF4323
:101330000760F0BD1AB1838A0B43838202E0838A7F
:101340008B4383827047028A4FF6F0731A40028201
:10135000028A0A430282704782894FF2FF731A4061
:10136000828182890A438281704721B1828942F059
:101370000202828104E082894FF6FD731A40828165
:101380007047028A4FF6DF731A400282028A0A43CC
:101390000282704721B1028A42F48042028204E054
:1013A000028A4BF6FF731A4002827047C1F30802AB
:1013B0008280704701468888C0F3080070478189A1
:1013C00041F0010181817047028BD2B20283028B0E
:1013D00042EA012202837047028B02F47F420283B9
:1013E000028B0A430283704721B1828A42F02002B5
:1013F000828204E0828A4FF6DF731A40828270474D
:1014000021B1828A42F01002828204E0828A4FF681
:10141000EF731A408282704721B1828A42F008023B
:10142000828204E0828A4FF6F7731A408282704704
:1014300021B1828942F40042828103E08289C2F3B1
:101440000E028281704721B1828A42F40062828258
:1014500004E0828A4FF2FF731A4082827047828AC8
:101460004FF6FB731A408282828A0A438282704757
:1014700021B1828A42F00202828204E0828A4FF61F
:10148000FD731A408282704702460020B1F5007F4A
:1014900000D100BF13880B400BB1012000E00020F9
:1014A000704701F40072B2F5007F00D100BFCA435B
:1014B0000280704770B502460024002300250020FA
:1014C00040F66A16B14200D100BFC1F3421501F0E7
:1014D0001F03012606FA03F3012D02D1968933403A
:1014E00006E0022D02D1168A334001E0968A33408D
:1014F0000C12012606FA04F41688344013B10CB11C
:10150000012000E0002070BD10B50022002340F64D
:101510006A14A14200D100BF0A1201249440A3B270
:10152000DC43048010BD000000380140004400404E
:1015300000480040004C00400050004000F0D7FA46
:1015400001F030FA00F098FB00F048FC00F01BFAC4
:1015500002F0C8F901F053FE062001F0C7FD15485E
:101560000388154802880021084601F0A3FE13A055
:1015700002F004FB01F01AF800F002F919E0194832
:10158000006870B101F05CF800201649086002F0B4
:101590001EF902F0C0F91448006880F001001249F9
:1015A000086010480068401C08B902F045F901F0D5
:1015B00098F8E4E75E0000205C0000200D0AD2B03D
:1015C000BBF02057462D45535038323636205769E8
:1015D0004669C4A3BFE9B2E2CAD4C0FDB3CC0D0AC8
:1015E00000000000300000200C0C0140704700BFDC
:1015F000FEE700BFFEE700BFFEE700BFFEE7704763
:101600007047704710B5002407E0524850F8240096
:10161000401C504941F82400641C022CF5DB4D4865
:101620000068C82811D300204A4908604A48006869
:1016300058B94A4800F0F7F9012802D14649086034
:1016400003E04FF0FF3044490860424840683228C8
:1016500002D300203F49486010BD10B540F225512B
:101660003F48FFF727FFD8B13D48FFF7A3FEC4B2BC
:101670003C48B0F80004C0F30E0040F2FF3188424D
:101680000EDA3849B1F80014C1F30E00411C354A96
:10169000B2F8002461F30E023249A1F800240C5480
:1016A00040F224412E48FFF705FF01280DD12D48B7
:1016B000B0F8000420F4004000F500402949A1F8EA
:1016C00000042748FFF776FEC4B210BD10B540F203
:1016D00025512548FFF7EEFED8B12348FFF76AFEF3
:1016E000C4B22248B0F80004C0F30E0040F2FF314B
:1016F00088420EDA1D49B1F80014C1F30E00411CF6
:101700001A4AB2F8002461F30E021849A1F8002425
:101710000C5440F224411448FFF7CCFE012817D1A5
:101720001248B0F8000420F4004000F500400F49D2
:10173000A1F800040C48FFF73DFEC4B20CA10B4811
:1017400002F01CF908B1012000E000200B490870EC
:1017500010BD000028000020300000203C000020C8
:10176000003801407604002000480040740000204A
:10177000434C4F5345440D0A000000004100002037
:1017800030B51A4800686422B0FBF2F1B1F1807FF5
:1017900001D301201DE021F07F40401E4FF0E022E8
:1017A000506150170F22002807DA13071D0E104B47
:1017B00000F00F04241F1D5503E013071C0E0D4BF2
:1017C0001C5400BF00204FF0E02290610720106100
:1017D000002008B100BFFEE74FF0E020006940F0B4
:1017E00001004FF0E021086130BD00000000002042
:1017F00018ED00E000E400E0F0B503460D461646A3
:10180000002729460A2E03D0002008702846F0BD84
:1018100033B9302001F8010B002008702846F6E7A4
:10182000002B03DA2D2001F8010B5B4242F210720B
:101830000DE093FBF2F404B937B104F1300001F884
:10184000010B04FB123301270A2092FBF0F2002A5D
:10185000EFDC002008702846D9E70FB470B586B0D9
:1018600006460CA8019073E00B9800785C281CD108
:101870000B98401C0B9000786E2809D072280FD16D
:101880000D213046FFF792FD0B98401C0B900BE0AA
:101890000A213046FFF78AFD0B98401C0B9003E0AD
:1018A0000B98401C0B9000BF4BE00B98007825284C
:1018B00040D10B98401C0B900078642818D07328F6
:1018C00033D1019810C801900BE021783046FFF722
:1018D0006DFD00BF80213046FFF7D6FD0028F9D00E
:1018E000641C20780028F0D10B98401C0B9020E05D
:1018F000019820C801900A2202A92846FFF77CFF20
:1019000002AC0BE021783046FFF750FD00BF80218C
:101910003046FFF7B9FD0028F9D0641C2078002874
:10192000F0D10B98401C0B9003E00B98401C0B90DF
:1019300000BF06E00B9810F8011B0B903046FFF734
:1019400035FD00BF80213046FFF79EFD0028F9D00D
:101950000B980078002887D106B070BC5DF814FBA6
:1019600008B501214020FFF781FB4020ADF80000C1
:1019700010208DF8030003208DF8020069465148BD
:10198000FFF7B8F808BD10B5FFF7EAFF40214D4852
:10199000FFF75DF910BD08B54020ADF80000482004
:1019A0008DF8030069464748FFF7A4F808BD08B55D
:1019B0004020ADF8000010208DF8030003208DF8C2
:1019C000020069463F48FFF795F808BD70B500254D
:1019D000002424E000BF40213A48FFF71EF9002808
:1019E000F9D0282000F0F0FF40213648FFF715F924
:1019F00001280DD100BF40213248FFF70EF9012820
:101A0000F9D0C4F1070101208840C0B2054304E0C9
:101A1000C4F10701012088408543601CC4B2082C32
:101A2000D8DB284670BD10B50446FFF7C0FF402143
:101A30002448FFF70EF944F2506000F0C5FF402142
:101A40002048FFF704F91E2000F0BEFFFFF7A3FFB8
:101A500040211C48FFF7E1F880BB00BF4021194836
:101A6000FFF7DBF80028F9D000BF40211548FFF749
:101A7000D4F80128F9D0FFF7A9FF2070FFF7A6FFDF
:101A80006070FFF7A3FFA070FFF7A0FFE070FFF703
:101A90009DFF2071FFF78BFF40210A48FFF7D7F821
:101AA000207861780844A1780844E17808442179D5
:101AB000884201D1012010BD0020FCE7FFE7002093
:101AC000F9E700000018014008B54FF4A060FEF7E8
:101AD0003DFC25208DF8000001208DF801008DF8D7
:101AE00002008DF803006846FEF735FC08BD00B51E
:101AF00085B001210420FFF7B9FA01218803FFF71F
:101B0000B5FA4FF40070ADF8100018208DF81300EE
:101B100003208DF8120004A95548FEF7EBFF4FF49F
:101B20008060ADF8100004208DF8130004A950481F
:101B3000FEF7E0FF4FF4E13000900020ADF8040024
:101B4000ADF80600ADF80800ADF80C000C20ADF8BB
:101B50000A0069464748FFF730FBFFF7B5FF01224F
:101B600040F225514348FFF7C0FB012240F22441D7
:101B70004048FFF7BAFB01213E48FFF7AAFB05B03A
:101B800000BD70B504460D4629462046FFF70EFC01
:101B900000BF80212046FFF777FC0028F9D070BDF8
:101BA0002DE9F04107460D461646002405E0295D63
:101BB0003846FFF7E6FF601CC4B2B442F7DB00BF53
:101BC00040213846FFF760FC0028F9D0BDE8F081DD
:101BD00070B506460C46002500BF615D3046FFF734
:101BE000D0FF6D1C605D0028F7D100BF402130465A
:101BF000FFF74AFC0028F9D070BD2DE9F0410546F9
:101C00000C46260AE7B231462846FFF7CFFB00BF55
:101C100080212846FFF738FC0028F9D039462846AD
:101C2000FFF7C4FB00BF80212846FFF72DFC0028EA
:101C3000F9D0BDE8F08170B504460D46E1B20D481B
:101C4000FFF7B4FB00BF80210A48FFF71DFC002806
:101C5000F9D0204670BD10B5044600BF20210548CC
:101C6000FFF712FC0028F9D00248FFF7A3FB10BDD4
:101C7000000801400038014008B501210820FFF7A5
:101C8000F5F92020ADF8000010208DF803000320A6
:101C90008DF8020069461148FEF72CFF0120ADF8CF
:101CA000000069460D48FEF725FF0220ADF8000050
:101CB00069460A48FEF71EFF20210848FEF7C7FFC5
:101CC00001210648FEF7C3FF02210448FEF7BFFFCB
:101CD00008BD2022014B14331A607047000C0140EC
:101CE00008B54FF4A060FEF731FB27208DF8000007
:101CF00000208DF801008DF8020001208DF803000E
:101D00006846FEF728FB08BD00B585B001218804B0
:101D1000FFF7B9F901210820FFF7A8F94FF4806017
:101D2000ADF8100018208DF8130003208DF8120074
:101D300004A9F948FEF7DEFE4FF40060ADF810008C
:101D400004208DF8130004A9F348FEF7D3FE4FF4E6
:101D5000E13000900020ADF80400ADF80600ADF8C9
:101D60000800ADF80C000C20ADF80A006946EB48FD
:101D7000FFF723FA012240F22551E848FFF7B5FAB0
:101D8000012240F22441E548FFF7AFFAFFF7A8FF30
:101D90000121E248FFF79DFA05B000BD08B5012119
:101DA0000820FFF763F94FF48070ADF800001020B1
:101DB0008DF8030003208DF802006946D648FEF72F
:101DC00099FE01210820FFF751F94FF40070ADF89A
:101DD00000006946D048FEF78DFE08BD10B5FFF73C
:101DE000DDFFFFF791FF4FF40071CB48FEF72FFFA7
:101DF0004FF48071C848FEF72CFF10BD10B54FF4AA
:101E00000071C548FEF725FFC54800F0DDFD4FF421
:101E10000071C148FEF71BFF10BD2DE9F0410646D9
:101E20000C4615461F46BF48B0F800046FF30E007D
:101E3000BC49A1F800043246BBA1B848FFF70DFD2C
:101E40001CB915B90120BDE8F0814FF47A7107FB88
:101E500001F000F0B9FD0020B249B1F80014C1F35F
:101E60000E01B04A50541146B1A001F087FEAD48B2
:101E7000B0F800046FF30E00AA49A1F80004084668
:101E8000B0F8000420F40040A1F80004B4B1ADB1F2
:101E90002146A44801F072FD08B1012000E00020B5
:101EA00040B929469F4801F069FD08B1012000E0D2
:101EB000002008B10120C6E70020C4E744B1214654
:101EC000984801F05BFD08B10120BCE70020BAE7AB
:101ED0002946944801F052FD08B10120B3E70020E3
:101EE000B1E710B500244FF400718B48FEF7AFFE48
:101EF00090A001F043FE934800F066FD15E02146F6
:101F000091A001F03BFE4FF4FA73002294A195A03A
:101F1000FFF783FF28B1214693A001F02FFE012097
:101F200010BDFFF76BFF601CC4B20A2CE7DB00207A
:101F3000F6E710B5044624B1012C0AD0022C18D1C2
:101F40000FE040F6C4138FA285A191A0FFF765FFB3
:101F500010BD40F6C4138BA281A190A0FFF75DFFD6
:101F6000F6E740F6C41387A27DA18FA0FFF755FFC7
:101F7000EEE70020ECE700B58BB08EA101A801F0E0
:101F80000DFE4FF4FA73002275A101A8FFF745FF7B
:101F90000BB000BD30B59FB004460D462B4622461F
:101FA00089A101A801F0FAFD41F2883300226CA159
:101FB00001A8FFF732FF1FB030BD70B5A0B00446D6
:101FC0000D4616462B46224684A102A8009601F033
:101FD000E5FD4FF47A73002261A102A8FFF71DFF0F
:101FE00020B070BD10B586B004460CB1012000E0F1
:101FF000002002467FA101A801F0D0FD4FF4FA7342
:10200000002257A101A8FFF708FF06B010BDF0B5E8
:10201000B9B006460F4614461D46642120A801F0BB
:10202000A2FC16B1012E10D107E03B4675A276A1A5
:1020300020A8009401F0B2FD08E03B4676A272A110
:1020400020A8009401F0AAFD00E000BF00BF052D0C
:1020500006DA20AB2A4671A102A801F09FFD04E038
:1020600020AA73A102A801F099FD4FF47A6374A22B
:102070003BA102A8FFF7D1FE39B0F0BD70B5BCB0EE
:1020800004460D461646FCB12B46012270A11EA83F
:1020900001F084FD324673A1684601F07FFD4FF4E4
:1020A000FA7300222EA11EA8FFF7B7FE50B14FF41D
:1020B000FA7300222AA16846FFF7AFFE10B1012093
:1020C0003CB070BD0020FBE72B46002260A11EA89B
:1020D00001F064FD4FF4FA73002221A11EA8FFF75E
:1020E0009CFEEDE710B54FF4FA7300221CA161A02D
:1020F000FFF793FE68B163A10A4801F03FFC08B105
:10210000022010BD62A1074801F038FC10B1032085
:10211000F7E7CAE0C2E00000000C014000480040C0
:1021200020A107007400002025730D0A00000000A4
:10213000257300000D0A4154B2E2CAD42E2E2E2E71
:102140002E0D0A0080841E000D0A4154B2E2CAD44A
:10215000B4CECAFD2025642E2E2E2E2E2E0D0A0062
:102160004F4B0000415400000D0A4154B2E2CAD462
:10217000C6F4B6AFB3C9B9A62025642E2E2E2E2ED6
:102180002E0D0A006E6F206368616E6765000000A7
:1021900041542B43574D4F44453D310041542B434F
:1021A000574D4F44453D320041542B43574D4F440A
:1021B000453D330041542B4357444843505F4355FA
:1021C000523D312C3100000041542B43574A4150BD
:1021D0003D222573222C22257322000041542B43DB
:1021E000575341503D222573222C222573222C3136
:1021F0002C25640041542B4349504D55583D2564CE
:102200000000000054435000222573222C22257325
:10221000222C2573000000005544500041542B43EC
:10222000495053544152543D25642C2573000000FD
:1022300041542B43495053544152543D257300009F
:10224000414C5245415920434F4E4E4543540000A6
:1022500041542B4349505345525645523D25642C19
:102260002573000041542B43495053544F3D25736F
:102270000000000041542B434950535441545553DE
:10228000000000005354415455533A320D0A0000E7
:102290005354415455533A330D0A000079A17C48F8
:1022A00001F06CFB08B104202BE7002029E710B5F2
:1022B00000244FF4FA730022AFF25C11AFF24C002D
:1022C000FFF7ABFD002831D072A1714801F056FB39
:1022D00010B144F0010401E024F0010471A16C4844
:1022E00001F04CFB10B144F0020401E024F00204C0
:1022F00070A1674801F042FB10B144F0040401E012
:1023000024F004046FA1624801F038FB10B144F0DE
:10231000080401E024F008046EA15D4801F02EFBE2
:1023200010B144F0100401E024F01004204610BD68
:102330002DE9F04105460F464FF4FA730022AFF243
:10234000E01168A0FFF769FD69A1514801F016FB93
:1023500006460EB1B61D02E00020BDE8F081002463
:1023600009E0305D2855285D222802D1002028553B
:1023700003E0601CC4B2BC42F3DB00BF0120ECE709
:1023800010B54FF4FA730022AFF22C215AA0FFF7D8
:1023900044FD08B9002010BD4FF4FA735AA2AFF201
:1023A00040215AA0FFF739FDF5E710B55A4800F073
:1023B0000BFB5AA15A48FFF750FA5A4800F004FBA9
:1023C00010BD2DE9F04186B007460C4615461E4665
:1023D0004FF0000847B12246AFF2AC215048FFF75A
:1023E0003CFA4FF001081CE0052E06DAAB1C324621
:1023F0004DA101A801F0D2FB04E0AA1C4FA101A845
:1024000001F0CCFB4FF47A73002250A101A8FFF732
:1024100004FD4FF47A7300224DA12046FFF7FDFC26
:102420008046404606B0BDE8F08170B50446002500
:102430001748B0F800046FF30E001549A1F8000426
:102440000846B0F8000420F40040A1F8000400BFE2
:102450000F48B0F80004C00B0028F9D000200C4948
:10246000B1F80014C1F30E01094A50540CB11546DD
:1024700005E039A1064801F081FA00B1044D284673
:1024800070BD00005354415455533A340D0A0000B6
:10249000740000202B4349505354415455533A3053
:1024A0002C0000002B4349505354415455533A31AA
:1024B0002C0000002B4349505354415455533A3299
:1024C0002C0000002B4349505354415455533A3388
:1024D0002C0000002B4349505354415455533A3477
:1024E0002C00000041542B43494653520000000089
:1024F000415049502C22000041542B4349504D4F2C
:1025000044453D31000000003E00000041542B4393
:10251000495053454E44000040420F002B2B2B00E6
:102520000048004020A1070041542B434950534527
:102530004E443D25642C25640000000041542B438B
:10254000495053454E443D25640000003E200000A4
:1025500053454E44204F4B002B495044000000008F
:1025600070B505460422A3A1284601F019FA30B13E
:1025700005230022A1A10120FFF723FF15E0A3A15D
:10258000284601F0FBF9044624B1201D01F017FA9A
:10259000A0490860A0A1284601F0F0F9044624B142
:1025A000201D01F00CFA9E49086070BD10B59DA079
:1025B00001F0E4FAA2A001F0E1FA4FF48071A6481C
:1025C000FEF745FB00BFFFF78CFC0028FBD000BFE7
:1025D000FFF7D1FC0028FBD0A0A001F0CFFA00BF8C
:1025E0000020FFF7A6FC0028FAD0A4A001F0C6FA4C
:1025F00000BFA9A1ABA0FFF7CDFC0028F9D0AAA08D
:1026000001F0BCFA00BF0020FFF7ECFC0028FAD074
:10261000ABA001F0B3FA00BF0523B0A2B1A1002026
:10262000FFF7F5FC0028F7D0B2A001F0A7FA00BF31
:10263000FFF7A6FE0028FBD0B5A001F09FFA10BD61
:1026400010B59CB0642103A801F08DF9B64800686C
:1026500001280DD1B548C078B4498978CDE900107A
:10266000B24843780278B2A103A801F097FA03E0D8
:10267000B2A103A801F092FA03A9B5A001F07EFA75
:102680000523002203A90120FFF79BFEB148007833
:10269000002824D0FFF789FE00BFFFF723FD044682
:1026A000002CFAD0042C15D1ABA001F067FA00BFC2
:1026B00079A17CA0FFF76EFC0028F9D000BF0523AC
:1026C00086A288A10020FFF7A2FC0028F7D0AAA0CC
:1026D00001F054FA00BFFFF753FE0028FBD01CB0F6
:1026E00010BD70B5AB48B0F800040121B1EBD03F8C
:1026F00028D100240DE0A748015DA748FEF756FE4B
:1027000000BF4021A448FEF7BFFE0028F9D0601C9E
:1027100084B2A048B0F80004C0F30E00A042EADC86
:102720009C48B0F800046FF30E009A49A1F8000429
:102730000846B0F8000420F40040A1F80004084660
:10274000FFF70EFF9548B0F80004C00B40B300241B
:102750000DE09248015D9248FEF728FE00BF40213F
:102760008F48FEF791FE0028F9D0601C84B28B4898
:10277000B0F80004C0F30E00A042EADC8748B0F8CD
:1027800000046FF30E008549A1F800040846B0F874
:10279000000420F40040A1F800040846FFF7E0FE22
:1027A0006C480078002824D0FFF7FFFD00BFFFF73A
:1027B00099FC0546002DFAD0042D15D166A001F034
:1027C000DDF900BF34A137A0FFF7E4FB0028F9D002
:1027D00000BF052341A243A10020FFF718FC0028F9
:1027E000F7D065A001F0CAF900BFFFF7C9FD0028C6
:1027F000FBD070BD7365745F00000000496E7661A8
:102800006C696420696E707574210A0068756D5F6B
:10281000000000003400002074656D5F00000000BF
:10282000380000200D0AD5FDD4DAC5E4D6C3204512
:10283000535038323636202E2E2E2E2E2E0D0A00D4
:102840000D0ACAB9C4DC2045535038323636202E22
:102850002E2E2E2E2E0D0A00000C01400D0AD5FD45
:10286000D4DAC5E4D6C3B9A4D7F7C4A3CABD2053EC
:102870005441202E2E2E2E2E2E0D0A000D0AD5FD8F
:10288000D4DAC1ACBDD32057694669202E2E2E2E36
:102890002E2E0D0A00000000303331366379783473
:1028A00034300000637978000D0ABDFBD6B9B6E07C
:1028B000C1ACBDD3202E2E2E2E2E2E0D0A000000D0
:1028C0000D0AD5FDD4DAC1ACBDD32053657276654F
:1028D00072202E2E2E2E2E2E0D0A00003132333471
:1028E000350000003139322E3136382E34332E3156
:1028F000343800000D0ABDF8C8EBCDB8B4ABB7A2B0
:10290000CBCDC4A3CABD202E2E2E2E2E2E0D0A00F6
:102910000D0AC5E4D6C3204553503832363620CD93
:10292000EAB1CF0D0A000000300000203C0000207A
:1029300025642E25642C25642E256400526561646F
:10294000204448543131204552524F52210D0A0043
:1029500025730000410000200D0AD5FDD4DAD6D839
:10296000C1ACC8C8B5E3BACDB7FECEF1C6F7202ECC
:102970002E2E2E2E2E0D0A000D0AD6D8C1ACC8C898
:10298000B5E3BACDB7FECEF1C6F7B3C9B9A60D0A05
:102990000000000076040020004800407400002081
:1029A000003801401A48006840F0807018490860FB
:1029B0000020184948600846006840F0010008609F
:1029C000704714484068704731B5002312480068CA
:1029D000124DB0FBF5F0009D00FB05F400BFFFF7C2
:1029E000F0FF024611E0FFF7ECFF014691420CD0E8
:1029F000914202D9881A034403E0C2F1FF3008442F
:102A000003440A46A34200D300E0ECE700BF38BD10
:102A1000FCED00E0001000E00000002040420F004C
:102A200001B502E00098401E009000980028F9D1FE
:102A300008BD08B501216020FEF718FB03208DF8C2
:102A4000020018208DF803004FF48040ADF800001C
:102A50006946FE48FEF74EF84FF40040ADF800001E
:102A60006946FA48FEF746F80120ADF800006946CD
:102A7000F648FEF73FF80220ADF800006946F3483B
:102A8000FEF738F88020ADF800006946F048FEF700
:102A900031F84FF48070ADF800006946EC48FEF75D
:102AA00029F84FF40070ADF800006946E848FEF7D9
:102AB00021F84FF48060ADF800006946E448FEF765
:102AC00019F84FF40060ADF800006946E048FEF7E1
:102AD00011F84FF48050ADF800006946DC48FEF76D
:102AE00009F84FF40050ADF800006946D848FEF7E9
:102AF00001F84FF48040ADF800006946D448FDF776
:102B0000F9FF4FF40040ADF800006946D048FDF7EA
:102B1000F1FF4FF48070ADF800006946CB48FDF737
:102B2000E9FF4FF40070ADF800006946C748FDF7B3
:102B3000E1FF4FF48060ADF800006946C348FDF73F
:102B4000D9FF03208DF8020018208DF80300102013
:102B5000ADF800006946BD48FDF7CCFF2020ADF878
:102B600000006946B948FDF7C5FF8020ADF80000B8
:102B70006946B648FDF7BEFF4FF40060ADF80000AF
:102B80006946B248FDF7B6FF10208DF80300032018
:102B90008DF802000220ADF800006946AC48FDF750
:102BA000A9FF10208DF8030003208DF802004FF4D8
:102BB0008050ADF800006946A448FDF79BFF08BDB2
:102BC00000B597B03C2108A800F0CDFE1C2101A85B
:102BD00000F0C9FE01210802FEF73BFA0120019036
:102BE0000420039080060790002002900490059036
:102BF00006900890099008200A9010200B90002061
:102C00000C900E900F9010904FF480501190002077
:102C100012901390149001A81590169008A8FDF733
:102C20004FFC01210020FDF7B3FD17B000BD10B52A
:102C30000024042000F098FF00BF8648008800BFF1
:102C40008448008800F08AFF04464FF6FF7000EACF
:102C5000042400F083FF044348F25250844201D11F
:102C6000204610BDD32000F07FFF00BF79480088C8
:102C700000BF7848008800F071FF04464FF6FF70EF
:102C800000EA042400F06AFF044349F24130844220
:102C900001D12046E5E70020E3E710B5FFF7C7FFC5
:102CA0006D4908800846008849F2413188427CD14C
:102CB000CF2000F059FF002000F05AFF812000F0E3
:102CC00057FF302000F054FFED2000F04DFF64204E
:102CD00000F04EFF032000F04BFF122000F048FFF1
:102CE000812000F045FFE82000F03EFF852000F045
:102CF0003FFF102000F03CFF782000F039FFCB2090
:102D000000F032FF392000F033FF2C2000F030FFBC
:102D1000002000F02DFF342000F02AFF022000F0F8
:102D200027FFF72000F020FF202000F021FFEA20FD
:102D300000F01AFF002000F01BFF002000F018FF39
:102D4000B12000F011FF002000F012FF1B2000F066
:102D50000FFFB62000F008FF0A2000F009FFA220B4
:102D600000F006FFC02000F0FFFE352000F000FF5D
:102D7000C12000F0F9FE112000F0FAFEC52000F09D
:102D8000F3FE452000F0F4FE452000F0F1FEC720E0
:102D900000F0EAFEA22000F0EBFEF22000F0E4FEDC
:102DA000002000F0E5FE262000E0A2E000F0DCFEBE
:102DB000012000F0DDFEE02000F0D6FE0F2000F044
:102DC000D7FE262000F0D4FE242000F0D1FE0B20F8
:102DD00000F0CEFE0E2000F0CBFE092000F0C8FE71
:102DE000542000F0C5FEA82000F0C2FE462000F0EE
:102DF000BFFE0C2000F0BCFE172000F0B9FE092039
:102E000000F0B6FE0F2000F0B3FE072000F0B0FE89
:102E1000002000F0ADFEE12000F0A6FE002000F052
:102E2000A7FE192000F0A4FE1B2000F0A1FE042044
:102E300000F09EFE102000F09BFE072000F098FEA0
:102E40002A2000F095FE472008E000000014014011
:102E500000180140000002606200002000F088FEBF
:102E6000392000F085FE032000F082FE062000F0ED
:102E70007FFE062000F07CFE302000F079FE382036
:102E800000F076FE0F2000F073FE362000F06CFE9E
:102E9000C82000F06DFE2A2000F066FE002000F041
:102EA00067FE002000F064FE002000F061FEEF20CD
:102EB00000F05EFE2B2000F057FE002000F058FED0
:102EC000002000F055FE012000F052FE3F2000F0EF
:102ED0004FFE3A2000F048FE552000F049FE112038
:102EE00000F042FEFD48FFF79BFD292000F03CFE6C
:102EF000FBE0FB48008848F252518842F8D1CF20CD
:102F000000F032FE002000F033FEC12000F030FE61
:102F1000302000F02DFEED2000F026FE642000F0B1
:102F200027FE032000F024FE122000F021FE812065
:102F300000F01EFEE82000F017FE852000F018FECD
:102F4000102000F015FE782000F012FECB2000F0DB
:102F50000BFE392000F00CFE2C2000F009FE0020B2
:102F600000F006FE342000F003FE022000F000FE18
:102F7000F72000F0F9FD202000F0FAFDEA2000F033
:102F8000F3FD002000F0F4FD002000F0F1FDC02072
:102F900000F0EAFD212000F0EBFDC12000F0E4FD8F
:102FA000112000F0E5FDC52000F0DEFD2D2000F031
:102FB000DFFD332000F0DCFD362000F0D5FD0020E1
:102FC00000F0D6FD3A2000F0CFFD552000F0D0FDF6
:102FD000B12000F0C9FD002000F0CAFD172000F06C
:102FE000C7FDB62000F0C0FD0A2000F0C1FDA22000
:102FF00000F0BEFDF62000F0B7FD012000F0B8FDA6
:10300000302000F0B5FDF22000F0AEFD002000F011
:10301000AFFD262000F0A8FD012000F0A9FDE02072
:1030200000F0A2FDD02000F0A3FD002000F0A0FDE4
:10303000022000F09DFD072000F09AFD0B2000F01B
:1030400097FD1A2000F094FD312000F091FD5420EE
:1030500000F08EFD402000F08BFD292000F088FD5F
:10306000122000F085FD122000F082FD122000F0F9
:103070007FFD172000F07CFDE12000F075FDD020E1
:1030800000F076FD002000F073FD022000F070FDDE
:10309000072000F06DFD052000F06AFD252000F0FE
:1030A00067FD2D2000F064FD442000F061FD452007
:1030B00000F05EFD1C2000F05BFD182000F058FDC4
:1030C000162000F055FD1C2000F052FD1D2000F0E0
:1030D0004FFD112000F048FD8048FFF7A1FC29209A
:1030E00000F042FD2C2000F03FFD10BD10B504465D
:1030F000072C00DD10BD7B480470204604EBD07126
:103100004910A4EB410139B9F020774908804FF408
:10311000A0707649088006E04FF4A07072490880DC
:10312000F02072490880362000F01EFD6C480088AF
:1031300049F24131884205D1082141EA441000F0AA
:1031400017FD0AE06648008848F25251884204D1CF
:10315000002141EA441000F00BFD2A2000F004FD9C
:10316000002000F005FD002000F002FD5E49098806
:10317000491EC1F3072000F0FBFC5B490978491E9A
:10318000C8B200F0F5FC2B2000F0EEFC002000F0AF
:10319000EFFC002000F0ECFC54490988491EC1F303
:1031A000072000F0E5FC51490978491EC8B200F03B
:1031B000DFFC2C2000F0D8FC00BF9BE710B50221FB
:1031C0004B48FDF746FD40F6FF20FFF729FC0221A2
:1031D0004748FDF73CFD40F6FF20FFF721FC10BDFE
:1031E00010B504462CB14FF480514248FDF731FD33
:1031F00004E04FF480513F48FDF729FD10BD10B5A4
:10320000FFF717FCFFF7DCFC0120FFF7E9FFFFF7F2
:10321000D5FFFFF742FD33480078FFF767FF10BD89
:103220002DE9F04104460D4616461F462A2000F0BF
:103230009BFC201200F09CFCE0B200F099FCA1196C
:10324000491EC1F30F2000F093FCA119491EC8B21A
:1032500000F08EFC2B2000F087FC281200F088FC88
:10326000E8B200F085FCE919491EC1F30F2000F017
:103270007FFCE919491EC8B200F07AFCBDE8F08174
:1032800070B504460D4601231A4629462046FFF72D
:10329000C7FF70BD70B504460D4600262C2000F017
:1032A00063FC00BF03E0284600F062FC761CA642E7
:1032B000F9D370BD2DE9F04106460F4614461D4670
:1032C0002B46224639463046FFF7AAFF04FB05F09D
:1032D00009490988FFF7DEFFBDE8F081FCBF020065
:1032E00062000020600000205C0000205E000020E2
:1032F00000180140001401406A00002070B5054626
:103300000C46FE48008885420CDAFD48008884425D
:1033100008DA21462846FFF7B3FFFA480188012062
:10332000FFF7B8FF70BD70B5002400252E2000F017
:103330001BFC00BFF448008800F010FC044600F0BD
:103340000DFC054604F478404FF4FC6101EAC40129
:10335000084340EAE52070BD70B504460D46294695
:103360002046FFF78DFFFFF7DEFF0646304670BDB3
:103370002DE9FF4F83B081464FF0000AD3460598F0
:10338000A0EB090504990698461ACDF80490049814
:103390000090002D01DD012705E00DB9002702E0B6
:1033A0004FF0FF376D42002E02DD4FF0010806E0BE
:1033B00016B94FF0000802E04FF0FF387642B542F0
:1033C00001DD2C4600E034460020029019E0DDE9E2
:1033D0000010FFF793FFAA44B344A24505DDAAEB12
:1033E000040A0198384480B20190A34505DDABEB97
:1033F000040B0098404480B200900298401C80B2B8
:103400000290611C02988842E1DD07B0BDE8F08FB0
:103410002DE9F04104460D4616461F46DDF818809A
:10342000B8F1000F0CD03B46324629462046FFF744
:10343000F7FE06FB07F0B3490988FFF72BFF27E0EB
:10344000A019401E82B22B4629462046FFF790FF66
:10345000E819401E83B2A019401E82B2E819401E2E
:1034600081B22046FFF784FFE819401E83B222464E
:1034700029462046FFF77CFFE919491E8BB2A119A6
:10348000491E8AB2A119491E88B22946FFF770FF6A
:10349000BDE8F0812DE9F05F05460E4691469B465A
:1034A00000240FFA89F70320A0EB49000FFA80FAF5
:1034B00087E0BBF1000F40D0A0463BE006EB0802DE
:1034C00091B22A1990B2FFF719FF06EB080291B2E8
:1034D0002A1B90B2FFF712FF321991B2A5EB080236
:1034E00090B2FFF70BFF321B91B2A5EB080290B22E
:1034F000FFF704FFA6EB080291B22A1B90B2FFF778
:10350000FDFEA6EB080291B22A1990B2FFF7F6FE73
:10351000321B91B205EB080290B2FFF7EFFE3219B1
:1035200091B205EB080290B2FFF7E8FE08F1010046
:103530000FFA80F8B845C1DD2FE0F21991B22A19CF
:1035400090B2FFF7DBFEF21991B22A1B90B2FFF79F
:10355000D5FE321991B2EA1B90B2FFF7CFFE321BB3
:1035600091B2EA1B90B2FFF7C9FEF21B91B22A1B7F
:1035700090B2FFF7C3FEF21B91B22A1990B2FFF787
:10358000BDFE321B91B2EA1990B2FFF7B7FE3219B5
:1035900091B2EA1990B2FFF7B1FE601C04B2BAF121
:1035A000000F05DAA000801D50440FFA80FA07E0F2
:1035B000E01B80000A3050440FFA80FA781E07B2F0
:1035C00000BFBC427FF775AFBDE8F09F2DE9F05F0B
:1035D000804689461646A6F120001FFA80FA4B491C
:1035E00009688988494A1268D28801FB02F0C1172C
:1035F00000EB5171C1F3C7074448006800680AFB3B
:10360000070B42480068C3884048006882884946E2
:103610004046FFF705FE2C2000F0A6FA002416E035
:10362000002510E01BF8040080212941084020B14A
:103630003448008800F09CFA03E03548008800F028
:1036400097FA681CC5B2082DECDB601CC4B2BC4202
:10365000E6DBBDE8F09F70B504460D46002624E089
:1036600030462A49096889880844244909888842DB
:1036700005DD002625480068C088204484B2204625
:1036800022490968C98808441D490988884201DD22
:10369000002600242A7821463046FFF797FF6D1C4C
:1036A0001A4800688088304486B228780028D7D12C
:1036B00070BD70B505460E46144631E028461349E4
:1036C0000968898808440D490988884205DD002574
:1036D0000E480068C088304486B230460B490968FD
:1036E000C988084406490988884201DD002500266A
:1036F000227831462846FFF769FF0BE05C00002086
:103700005E000020680000200000026064000020CD
:103710006A000020641C584800688088284485B2EC
:1037200020780028CAD170BD70B505460E461446F3
:1037300024E0304650490968C98808444F4909883F
:10374000884205DD00264C4800688088284485B200
:1037500028464949096889880844494909888842AE
:1037600001DD00250026227831462846FFF72EFF8E
:10377000641C41480068C088304486B22078002824
:10378000D7D170BD3C49086070473B48006870471E
:103790003C4A10803C4A118070473A4A12880280A5
:1037A000394A12880A80704736490880704736497E
:1037B0000880704770B50446FFF7E7FFC5882B46C1
:1037C0002F48028821460020FFF774FD70BD10B518
:1037D000FFF7DBFF00242DA12046FFF73CFF2F4819
:1037E000C37882782EA1344800F0D8F9FFF7CDFFD6
:1037F000C4882046FFF7DEFFFFF7C7FFC4882E49C5
:103800002046FFF728FF2548437802782BA12A4855
:1038100000F0C4F9FFF7B9FFC0884004040C20464B
:10382000FFF7C8FFFFF7B1FFC0884004040C22492E
:103830002046FFF710FF10BD10B5FFF7A6FFC488A4
:103840002046FFF7B7FFFFF7A0FFC0884004040C35
:103850002046FFF7AFFFFFF798FFC4881CA1204662
:10386000FFF7F9FEFFF791FFC0884004040C18A190
:103870002046FFF7F0FE10BD640000205E0000202F
:103880005C000020680000206A00002059482044A5
:103890004854313120746573740000003C000020EE
:1038A00054656D7065726174757265203A20256487
:1038B0002E256420000000007808002048756D69FE
:1038C00064697479203A2025642E2564252520001A
:1038D00052656164204448543131204552524F5260
:1038E0000000000008B501210420FDF7BFFB4FF4E4
:1038F0008070ADF8000010208DF8030003208DF8D3
:10390000020069461048FDF7F5F84FF480710E4843
:10391000FDF79FF908BD10B50C4800780C490968FF
:10392000884205DC094880780A490968884205DD33
:103930004FF480710448FDF78AF904E04FF4807178
:103940000148FDF786F910BD000801403C00002049
:103950003400002038000020D2B201E000F8012B32
:10396000491EFBD270470022F6E710B513460A46FF
:1039700004461946FFF7F0FF204610BD30B5054656
:103980002A460B4612F8010B13F8014B08B1A0426E
:10399000F8D01CB1002802D06D1CF1E7284630BDDC
:1039A00030B505460020034600E05B1C934205D27B
:1039B000EC5CC85C201A01D1002CF6D130BD70B58A
:1039C000064600F0FFF8046805460A22002130464A
:1039D00000F018F82C6070BD30B50B460146002091
:1039E0002022012409E021FA02F59D4205D303FAC1
:1039F00002F5491B04FA02F52844151EA2F1010242
:103A0000F1DC30BD2DE9F04791460F468046044673
:103A1000002614F8015B2DB100F03EF80068405D0F
:103A2000C007F6D12B2D02D02D2D18D0641E4A468A
:103A30003946204600F034F827B13968A14201D157
:103A4000C7F8008071054FF002040BD540420028F2
:103A500003DD00F0B7F80460A007BDE8F08746F486
:103A60008066E4E70028F8DA00F0ACF804606FF054
:103A70000040F2E7064C074D06E0E06840F0010325
:103A800094E8070098471034AC42F6D3FCF754FB97
:103A900094790008B47900080048704790790008CC
:103AA0002DE9F05F82460078002715468B460AF123
:103AB0000104B946302801D09DB113E014F8010B80
:103AC0000127782803D0582801D045B10AE00DB16C
:103AD000102D07D10027102514F8010B02E008254E
:103AE00000E00A250026B0460EE005FB080005FBB5
:103AF00006F1012701EB10461FFA80F8B6F5803F6A
:103B000000D3B94614F8010B294600F018F8002834
:103B1000EBDABBF1000F05D00FB1641E00E0544694
:103B2000CBF80040B9F1000F06D000F04BF80221AD
:103B30000160C81EBDE8F09F48EA0640FAE73A284F
:103B400000D2303820F02002412A01D3A2F1370000
:103B5000884201D34FF0FF307047000001480088D1
:103B600070470000000002604FF0C04108807047BD
:103B70000149088070470000000002600FB4054B47
:103B800010B503A9044A029800F030F810BC5DF8A3
:103B900014FB0000371C00086C0000200FB4084B19
:103BA00010B504A902AA039800F020F8044602A95F
:103BB000002000F0F7F8204610BC5DF814FB000070
:103BC000A53D0008004870477000002002E008C8CA
:103BD000121F08C1002AFAD170477047002001E087
:103BE00001C1121F002AFBD1704700002DE9FF4FD1
:103BF0008BB09A460F460546002606E025280BD0D6
:103C000052460D9990476D1C761C28780028F5D1F6
:103C10000FB03046BDE8F08F0024A0460122604975
:103C200000E0044315F8013F203B02FA03F008428C
:103C3000F7D128782E2817D115F8010F44F0040485
:103C40002A280ED06FF02F022878A0F13001092920
:103C50000AD808EB880102EB410100EB01086D1C5A
:103C6000F2E757F8048B6D1C287869283ED006DCF3
:103C70000028CDD063280BD0642804D136E0732807
:103C800010D075284BD052460D999047761C85E090
:103C900017F8040B8DF8000000208DF80100E946AC
:103CA000012003E057F8049B4FF0FF3061074FF00D
:103CB000000401D40AE0641C44450DDA8442FADBB6
:103CC00019F804100029F6D106E0641C8442FCDBDC
:103CD00019F804100029F8D1264404E019F8010B62
:103CE00052460D999047641EF8D257E001CF4FF02D
:103CF0000A0B002802DA40422D2102E0210504D5FA
:103D00002B218DF82410012103E0E10705D02021AB
:103D1000F7E70DF1200908910CE00021F9E701CF48
:103D20004FF00A0BF9E75946FFF756FE01F1300252
:103D300009F8012D0028F6D1ADEB090000F1200BA8
:103D4000600701D44FF00108D84502DDA8EB0B0055
:103D500000E000208046002406E009A85246005DED
:103D60000D999047641C761C08988442F5DB04E0AA
:103D7000302052460D999047761CB8F10001A8F109
:103D80000108F5DC05E019F8010B52460D99904742
:103D9000761CBBF10001ABF1010BF4DC6D1C34E7C8
:103DA000092801000A68531C0B601070704700005E
:103DB0000000000000000000000000000000000003
:103DC000001818181818180800081800000000003B
:103DD0000034242424000000000000000000000043
:103DE000000016247F2424247E24240000000000E8
:103DF00000083E6848681C1612127C101000000073
:103E00000061D296740810162949C600000000000F
:103E100000003C646438724ACE467F000000000017
:103E20000018181818000000000000000000000032
:103E30000004081810303030301010180C04000046
:103E400000201008080C0404040C081810200000BE
:103E500000080A341C6A080000000000000000008E
:103E6000000000001818187F181818000000000043
:103E700000000000000000000018180830000000DA
:103E8000000000000000003C0000000000000000F6
:103E900000000000000000000018180000000000F2
:103EA000000206040C08081010202040000000004A
:103EB00000003C6642475B7342663C000000000025
:103EC000000018784808080808087E000000000074
:103ED00000003C460606040810207E00000000009A
:103EE00000007C0606043C0202067C000000000084
:103EF00000000C1C14246444FF04040000000000B3
:103F000000007E6060607E0202067C00000000000F
:103F100000001E306048764242623C000000000013
:103F200000007E0206040C0818103000000000009B
:103F300000003C6242361C6642423C000000000029
:103F400000003C664242661A02047800000000004D
:103F50000000000018180000001818000000000001
:103F600000000000181800000018180830000000B9
:103F70000000000004183060100C06000000000073
:103F80000000000000007E007E0000000000000035
:103F900000000000301804060C1020000000000093
:103FA00000301C060606181000101000000000006B
:103FB000001C224141DDB5A5A5AF94C0403C0000E6
:103FC0000000181C342426627E43C100000000005B
:103FD00000007C4642467C4242427C0000000000D9
:103FE00000001E204040404040603E0000000000B5
:103FF00000007C46424343434246780000000000F4
:1040000000007E6060607E6060607E0000000000F6
:1040100000007E6060607E60606060000000000004
:1040200000001E604040CE4242623E0000000000A0
:104030000000424242427E424242420000000000F2
:1040400000007E181818181818187E0000000000CC
:1040500000007C0404040404044478000000000010
:1040600000004244485070584C4442000000000098
:10407000000020202020202020203E000000000002
:1040800000006266675F5B5BC1C1C10000000000A9
:104090000000626272525A4A4E464600000000001A
:1040A00000003C6243C3C3C343623C000000000005
:1040B00000007C464242467840404000000000003C
:1040C00000003C6243C3C3C343623C180F000000BE
:1040D00000007C6662667C6C646662000000000022
:1040E00000003E6040601C0602027C0000000000F0
:1040F00000007F1818181818181818000000000081
:10410000000042424242424242623C000000000043
:104110000000C14342622624341C18000000000045
:104120000000C1C141495B5B76666600000000008B
:10413000000043663418181C2466C3000000000009
:104140000000C14266341C18181818000000000056
:1041500000007E02040C181020607E0000000000A9
:10416000001C10101010101010101010101C000067
:1041700000402020101008080C0406020000000077
:10418000003C0C0C0C0C0C0C0C0C0C0C0C3C000033
:104190000000181C24620000000000000000000065
:1041A00000000000000000000000000000FF000010
:1041B00000201000000000000000000000000000CF
:1041C000000000003C06023E42467A00000000006B
:1041D000004040405C62424242427C0000000000DD
:1041E000000000001E20604060203E000000000033
:1041F000000202023E62424242663A0000000000B3
:10420000000000003C62427E40603E000000000072
:10421000000F1810107E1010101010000000000089
:10422000000000003F66426658403E43423C0000AA
:10423000004040405C6242424242420000000000B6
:10424000001818007808080808087E000000000020
:1042500000040C007C040404040404040C78000032
:1042600000606060626C787068646200000000004A
:10427000007808080808080808087E000000000008
:1042800000000000764B4B4B4B4B4B0000000000F6
:10429000000000005C624242424242000000000016
:1042A000000000003C62424342623C00000000000B
:1042B000000000005C62424242427C4040400000FC
:1042C000000000003E62424242663A0202020000E2
:1042D000000000006E72636060606000000000001B
:1042E000000000003E20203C06027C000000000090
:1042F00000001010FE10101010101E000000000032
:10430000000000004242424242663A0000000000C3
:10431000000000004342662434181800000000002A
:1043200000000000C1C15B5A5E666600000000002C
:104330000000000062261C181C266200000000001D
:104340000000000043426624341C181830E00000CE
:10435000000000007E060C1810207E000000000007
:10436000000E18101010307010101010180E0000F1
:1043700008080808080808080808080808080000CD
:104380000030180808080C0E08080808183000004B
:10439000000000000000714B06000000000000005B
:1043A000000000000000000000000000000000000D
:1043B00000000000000000000000000000000000FD
:1043C00000000000000000000000000000000000ED
:1043D00000000000000000000380018001800180D7
:1043E00001800180018001800180018000000000C7
:1043F00003C003C000000000000000000000000037
:1044000000000000000000000E700E700E700C30F6
:10441000000000000000000000000000000000009C
:10442000000000000000000000000000000000008C
:1044300000000000000000000000061806380630EA
:104440007FFE0C300C300C300C307FFE0C601C609A
:10445000186018600000000000000000000000006C
:1044600000000000000000C000C00FF83CC831C0D0
:1044700031803D801F8003F001F8031C030C031CF6
:104480003FF83FE0070006000000000000000000C9
:104490000000000000001C007E0E630C63186330F7
:1044A0007E6000C001800300077C0EE61CC618C6B3
:1044B00030C6607C0000000000000000000000002A
:1044C00000000000000000000FE01CF038703870A1
:1044D0001C601FC00F003F8C71CC60EC607C70389A
:1044E0003CFC1FCE000000000000000000000000A7
:1044F000000000000000000003C001800180018076
:1045000000000000000000000000000000000000AB
:10451000000000000000000000000000000000009B
:10452000000000000000003000E001C00180030036
:104530000700060006000E000E000E000E0006002A
:1045400007000300038001C000E00030000000000D
:104550000000000000000C0006000380018001C084
:1045600000E000600060007000700070006000609B
:1045700000E000C00180038006000C000000000085
:104580000000000000000000018011881DB803C079
:1045900007E03DBC01880180000000000000000031
:1045A000000000000000000000000000000000000B
:1045B000000000000000000000000000000001807A
:1045C00001800180018001807FFE018001800180E7
:1045D000018000000000000000000000000000005A
:1045E00000000000000000000000000000000000CB
:1045F000000000000000000000000000000003C0F8
:1046000003C001C001C003801F00000000000000C3
:10461000000000000000000000000000000000009A
:1046200000000000000000000FF00000000000008B
:10463000000000000000000000000000000000007A
:10464000000000000000000000000000000000006A
:10465000000000000000000000000000000003C097
:1046600003C003C0000000000000000000000000C4
:10467000000000000000000000180038003000605A
:1046800000E000C001C001800300030006000E002E
:104690000C001C00180030000000000000000000AA
:1046A000000000000000000001800FF01C38381CE2
:1046B000301C707E70EE738E7E0E7C0C300C381CBD
:1046C0001E780FE000000000000000000000000065
:1046D0000000000000000000000007C01FC039C03B
:1046E00001C001C001C001C001C001C001C001C0C2
:1046F0003FFC3FFC00000000000000000000000044
:10470000000000000000000003801FF0183800388F
:10471000001800380038007001E0038007001C001A
:104720003FFC3FFC00000000000000000000000013
:10473000000000000000000007801FF00038003873
:104740000038003007E007F00038001C001C00189B
:1047500020F83FE000000000000000000000000022
:104760000000000000000000000000F001B0033075
:1047700007300E301C30383070307FFE7FFE003046
:1047800000300030000000000000000000000000C9
:10479000000000000000000000001FF818001800D2
:1047A000180018001FE000F8001C001C001C003856
:1047B00000F01FC00000000000000000000000002A
:1047C0000000000000000000000003F80F001C00C3
:1047D0001800300037F83C3C300C300C380C381CDA
:1047E0001E380FF000000000000000000000000074
:1047F000000000000000000000003FFC001C00184A
:1048000000380070006000E001C0018003800700F4
:1048100006000E0000000000000000000000000084
:10482000000000000000000003C01FF8381C381C06
:10483000381C1C380FF007F01C78381C300C381C62
:104840003C380FF0000000000000000000000000F5
:10485000000000000000000003801FF03838301C0A
:10486000701C700C380C1FFC0FCC001C0018007062
:104870001FE01F800000000000000000000000009A
:104880000000000000000000000000000000000028
:1048900003C003C00180000000000000000003C04E
:1048A00003C003C000000000000000000000000082
:1048B00000000000000000000000000000000000F8
:1048C00003C003C00180000000000000000003C01E
:1048D00003C001C001C003800F0000000000000001
:1048E0000000000000000000000000000000003890
:1048F00000F001C007001E0038000E00078001C054
:104900000070003000000000000000000000000007
:104910000000000000000000000000000000000097
:10492000000000003FFC000000003FFC3FFC0000D6
:104930000000000000000000000000000000000077
:1049400000000000000000000000000000001C004B
:104950000F00038001E00078001C007001E003807C
:104960000E000C000000000000000000000000002D
:1049700000000000000000000FC000F00038003808
:104980000038003803F0038003000300000000003B
:104990000780078000000000000000000000000009
:1049A00000000000000000E007F80C0C18063006BC
:1049B000700363F36633C673CC63CC62CC66CCE61B
:1049C000C7FCE0006000700038101FF0000000001D
:1049D0000000000000000000000003C007E006E047
:1049E0000E700E700C301C3818183FFC3FFC700E17
:1049F000600EE00700000000000000000000000062
:104A0000000000000000000000003FF03838381CB3
:104A1000381C38383FF03FF8381C380C380C381C3C
:104A20003FF83FE000000000000000000000000030
:104A3000000000000000000000E007FC1E04380039
:104A400038003000700070007000300038003C000A
:104A50001F9C07FC00000000000000000000000098
:104A6000000000000000000000003FF03078301C23
:104A7000300C300E300E300E300E300E301C303810
:104A80003FF03FC0000000000000000000000000F8
:104A9000000000000000000000001FF818001800CF
:104AA000180018001FF81FF8180018001800180048
:104AB0001FF81FF8000000000000000000000000C8
:104AC000000000000000000000001FF8180018009F
:104AD000180018001FF81FF8180018001800180018
:104AE0001800180000000000000000000000000096
:104AF000000000000000000000F007FC1E04380069
:104B000030007000700070FC700C700C300C380CB1
:104B10001F1C07FC00000000000000000000000057
:104B200000000000000000000000300C300C300CD1
:104B3000300C300C3FFC3FFC300C300C300C300C97
:104B4000300C300C000000000000000000000000ED
:104B5000000000000000000000003FFC0180018018
:104B6000018001800180018001800180018001803D
:104B70003FFC3FFC000000000000000000000000BF
:104B8000000000000000000000001FF000300030B6
:104B90000030003000300030003000300030007055
:104BA0001DE01FC000000000000000000000000029
:104BB00000000000000000000000381C387038E0E1
:104BC00039C03B803F003F003B8039C038E038703F
:104BD0003838381C00000000000000000000000011
:104BE000000000000000000000001C001C001C0071
:104BF0001C001C001C001C001C001C001C001C00D5
:104C00001FFC1FFC0000000000000000000000006E
:104C100000000000000000000000381C7C3C6C3EDE
:104C20006E6E666E66CE63C66386618660066006DB
:104C300060066006000000000000000000000000A8
:104C4000000000000000000000003C0C3C0C3E0C8A
:104C5000360C330C338C318C31CC30EC306C307CF6
:104C6000303C301C0000000000000000000000008C
:104C7000000000000000000001C00FF81C3C381CC0
:104C8000700E700E60066006700E700E700C381C90
:104C90001E780FE00000000000000000000000008F
:104CA000000000000000000000003FF0383C381C0D
:104CB000380C380C381C38783FE0380038003800A1
:104CC0003800380000000000000000000000000074
:104CD000000000000000000001C00FF81C3C381C60
:104CE000700E700E60066006700E700E700C381C30
:104CF0001E780FE0018001C000FF003C00000000B2
:104D0000000000000000000000003FF038383818B4
:104D10003818383838F03FC038E03870383838380C
:104D2000381C380E000000000000000000000000E9
:104D3000000000000000000001E00FF8380038001B
:104D400038003C001F8003F00078001C001C001C91
:104D500038783FE000000000000000000000000084
:104D6000000000000000000000007FFE01800180C4
:104D7000018001800180018001800180018001802B
:104D80000180018000000000000000000000000021
:104D900000000000000000000000300C300C300C5F
:104DA000300C300C300C300C300C300C300C381C0B
:104DB0001C380FF0000000000000000000000000A0
:104DC00000000000000000000000E006700E700E01
:104DD000381C381C1C181C380C300E70066007E09C
:104DE00003C003C00000000000000000000000003D
:104DF0000000000000000000000060066006600681
:104E000060066186638673C673CE766C366C3C3CF6
:104E10003C3C381C000000000000000000000000C6
:104E200000000000000000000000301C38181C3892
:104E30000E7007E003C003C007E00E701C3818387E
:104E4000381C700E00000000000000000000000090
:104E500000000000000000000000700E700C381C04
:104E60001C380E70066007E003C0018001800180DD
:104E70000180018000000000000000000000000030
:104E8000000000000000000000003FFC001C003893
:104E9000007000E001C0038007000E000C00180045
:104EA0003FFC3FFC0000000000000000000000008C
:104EB00000000000000007F007F0060006000600F2
:104EC00006000600060006000600060006000600B2
:104ED0000600060006000600060007F000000000BD
:104EE000000000000000000018001C000C0006007C
:104EF000070003000380018001C000C00060007053
:104F0000003000380018000C000000000000000015
:104F10000000000000000FE00FE000600060006093
:104F20000060006000600060006000600060006081
:104F3000006000600060006000600FE000000000A2
:104F40000000000000000000000003C006C0066072
:104F50000C301818301C0000000000000000000099
:104F60000000000000000000000000000000000041
:104F70000000000000000000000000000000000031
:104F80000000000000000000000000000000000021
:104F900000000000000000000000FFFF0000000013
:104FA00000000000000000001E0003800000000060
:104FB00000000000000000000000000000000000F1
:104FC00000000000000000000000000000000000E1
:104FD00000000000000000000000000000000000D1
:104FE0001FF01038001C001C0FFC1C1C381C381C47
:104FF0003CFC1FDC0000000000000000000000007E
:1050000000000000000000003800380038003800C0
:105010003BF83E1C3C1C380C380C380C380C381C47
:105020003C781FE0000000000000000000000000CD
:105030000000000000000000000000000000000070
:1050400007F80E001C0038003800380038001C003B
:105050000F1807F80000000000000000000000002A
:105060000000000000000000001C001C001C001CD0
:105070000FFC1C1C381C301C301C301C301C383CF5
:105080001CFC0F9C0000000000000000000000005D
:105090000000000000000000000000000000000010
:1050A0000FF01C38381C300C3FFC3000300038004A
:1050B0001E0C07FC000000000000000000000000C3
:1050C000000000000000003C01FE0380030003001C
:1050D00003007FFC7FFC03000300030003000300C8
:1050E00003000300000000000000000000000000BA
:1050F00000000000000000000000000000000000B0
:105100000FFE1C383818381818381FF03B80300054
:105110003FF01FFC300E700E381C1FF8000000001E
:10512000000000000000000038003800380038009F
:105130003BF83E383C1C381C381C381C381C381CCA
:10514000381C381C000000000000000000000000B7
:10515000000000000000018003C003C00000000048
:105160001FC001C001C001C001C001C001C001C019
:1051700001C03FFC00000000000000000000000033
:10518000000000000000002000700070000000001F
:105190003FF00070007000700070007000700070D0
:1051A000007000700070007020E03FC00000000040
:1051B000000000000000000018001800180018008F
:1051C000183C187018E01B801F001B8019E0187035
:1051D0001838181C0000000000000000000000004B
:1051E00000000000000000001FC001C001C001C09D
:1051F00001C001C001C001C001C001C001C001C0A7
:1052000001C03FFC000000000000000000000000A2
:10521000000000000000000000000000000000008E
:105220006F3C79EE71CE718E718E718E718E718E32
:10523000718E718E00000000000000000000000070
:10524000000000000000000000000000000000005E
:105250003BF83E383C1C381C381C381C381C381CA9
:10526000381C381C00000000000000000000000096
:10527000000000000000000000000000000000002E
:105280000FF01C3C381C700E700E700E700C381C29
:105290001E780FE000000000000000000000000089
:1052A00000000000000000000000000000000000FE
:1052B0003BF83E1C3C1C380C380C380C380C381CA5
:1052C0003C783FE03800380038003800000000002B
:1052D00000000000000000000000000000000000CE
:1052E0000FFC1C1C381C301C301C301C301C383C83
:1052F0001CFC0F9C001C001C001C001C000000007B
:10530000000000000000000000000000000000009D
:1053100019F81F1C1C0C180E180018001800180093
:10532000180018000000000000000000000000004D
:10533000000000000000000000000000000000006D
:105340000FF81C0018001E000FC001F8001800180C
:1053500018381FF0000000000000000000000000EE
:10536000000000000000000000000600060006002B
:105370007FFC060006000600060006000600070087
:10538000078401FC00000000000000000000000095
:10539000000000000000000000000000000000000D
:1053A000381C381C381C381C381C381C381C383C3D
:1053B0001CFC0FDC000000000000000000000000EA
:1053C00000000000000000000000000000000000DD
:1053D000700C381C38181C380C300E70066007E052
:1053E00003C003C000000000000000000000000037
:1053F00000000000000000000000000000000000AD
:10540000600660066186738E73CC33CC366C366C66
:105410003C3C3C38000000000000000000000000A0
:10542000000000000000000000000000000000007C
:10543000381C1C380E7007E003C003C007E00E7074
:105440001C38381E000000000000000000000000B2
:10545000000000000000000000000000000000004C
:10546000700C381C38181C380C300E70066007E0C1
:1054700003C003C0038007000E007C000000000092
:10548000000000000000000000000000000000001C
:105490001FF80038007000E001C0038007000C0016
:1054A0001FFC3FFC000000000000000000000000A6
:1054B000000000000000007801F8038003800380F2
:1054C0000380038003003F003E000300038003804D
:1054D000038003800380038001C000F80000000007
:1054E0000000018001800180018001800180018035
:1054F00001800180018001800180018001800180A4
:105500000180018001800180018001800000000095
:105510000000000000001E001F80018001C001C0CB
:1055200001C001C000C000FC007C00C001C001C07F
:1055300001C001C001C001C003801F0000000000C5
:10554000000000000000000000000000000000005B
:10555000000000001C003F0671CE60FC000000004F
:10556000000000000000000000000000000000003B
:10557000000000000000000000000000000000002B
:10558000000000000000000000000000000000001B
:10559000000000000000000000000000000000000B
:1055A00000000000000000000000000000000000FB
:1055B00000000000000000000000000000000000EB
:1055C00000000000000000000000000000000000DB
:1055D00000000000000000000000000000000000CB
:1055E000003C00003C00003C00003C00003C00008F
:1055F0003C00003C00003C00003C00003C00003C43
:1056000000003C00003C00003C00000000000000E6
:10561000003C00007E00003C000000000000000094
:10562000000000000000000000000000000000007A
:10563000000000000000000000000000000000006A
:1056400003C3E003C3E003C3C003C3C003C3C00379
:10565000C3C003C1C0000000000000000000000043
:10566000000000000000000000000000000000003A
:10567000000000000000000000000000000000002A
:10568000000000000000000000000000000000001A
:10569000000000000000000000000000000000000A
:1056A00000000000000001E0E001C0E001C0E001F6
:1056B000C0E03FFFFE3FFFFE03C1C00381C0038186
:1056C000C00381C07FFFFC7FFFFC0783800703804E
:1056D0000703800703800707800000000000000028
:1056E00000000000000000000000000000000000BA
:1056F00000000000000000000000000000000700A3
:10570000000F00000E0001FFF007FFF01F0E001E4B
:105710001E001E1C001E1C000FDC0007FC0000FF0A
:1057200080003FF00038F800387800783C0070784E
:105730003071F83FFFE01FFF0000E00000E00000D4
:10574000E000000000000000000000000000000079
:105750000000000000000000000000000000000049
:105760000F800F3FE01E78703C7070707070E070BA
:1057700071C03FE3801FC700000E00001C000078CE
:105780000000F0F001E7FC03CF0E078E0E0F0E0EA7
:105790001E0E0E3C07BC7003F80000000000000065
:1057A00000000000000000000000000000000000F9
:1057B00000000000000000000000000000000000E9
:1057C00000000001FF0007FF800F03C00F03C00FA0
:1057D00003C00F0780079F0003FE0003F0000FF8CF
:1057E0003C3E7C3C3C1F3C780FF87807F87C01F08D
:1057F0003E03F81FFFFC07FE1F0000000000000032
:105800000000000000000000000000000000000098
:105810000000000000000000000000000000000088
:10582000003E00003C00003C00003C00003C00004A
:105830003C00003C000000000000000000000000F0
:105840000000000000000000000000000000000058
:105850000000000000000000000000000000000048
:105860000000000000000000000000000000000038
:1058700000000000000000000000000000000080A8
:105880000001C0000780000F00001E00003C000067
:10589000780000F00000E00001E00001E00001C03D
:1058A0000003C00003C00001C00001E00001E000EF
:1058B00000F00000F000007800003C00001E000036
:1058C0000F000007C00001C0000000000000000041
:1058D00000000000000000000000000000000000C8
:1058E00003C00001E00000F000007C00003E00006A
:1058F0001E00000F000007800007800003800003E7
:10590000C00003C00003C00003C000038000078084
:10591000000780000F00001E00003C00007800001F
:10592000F00001E000038000000000000000000023
:105930000000000000000000000000000000000067
:10594000001C00001C000018000F18F007DBE0002E
:105950007F0000FF0007DBE00E1870001800001C3D
:1059600000001C000000000000000000000000001B
:105970000000000000000000000000000000000027
:105980000000000000000000000000000000000017
:105990000000000000000000000000000000000007
:1059A00000000000000000000000000000000000F7
:1059B0003C00003C00003C00003C00003C00003C7F
:1059C000003FFFFC3FFFFC003C00003C00003C00AF
:1059D000003C00003C00000000000000000000004F
:1059E00000000000000000000000000000000000B7
:1059F00000000000000000000000000000000000A7
:105A00000000000000000000000000000000000096
:105A10000000000000000000000000000000000086
:105A200000000000000000000000000000007C00FA
:105A3000007E00007E00003E00001E00003C0000D2
:105A4000F80007E000040000000000000000000073
:105A50000000000000000000000000000000000046
:105A60000000000000000000000000000000000036
:105A70000000000000000000000000000000000026
:105A80000003FFE003FFE000000000000000000052
:105A90000000000000000000000000000000000006
:105AA00000000000000000000000000000000000F6
:105AB00000000000000000000000000000000000E6
:105AC00000000000000000000000000000000000D6
:105AD00000000000000000000000000000000000C6
